{
  "address": "0x19A623284eB18Aa7Ad9743E88Ed9905cb7e61c76",
  "abi": [
    {
      "inputs": [
        {
          "internalType": "address",
          "name": "_router",
          "type": "address"
        },
        {
          "internalType": "address",
          "name": "_link",
          "type": "address"
        },
        {
          "internalType": "address",
          "name": "_priceFeed",
          "type": "address"
        }
      ],
      "stateMutability": "nonpayable",
      "type": "constructor"
    },
    {
      "inputs": [
        {
          "internalType": "uint256",
          "name": "currentBalance",
          "type": "uint256"
        },
        {
          "internalType": "uint256",
          "name": "calculatedFees",
          "type": "uint256"
        }
      ],
      "name": "NotEnoughBalance",
      "type": "error"
    },
    {
      "inputs": [
        {
          "internalType": "string",
          "name": "name",
          "type": "string"
        }
      ],
      "name": "TaskAlreadyExists",
      "type": "error"
    },
    {
      "inputs": [
        {
          "internalType": "uint256",
          "name": "index",
          "type": "uint256"
        }
      ],
      "name": "TaskHasBeenApplied",
      "type": "error"
    },
    {
      "inputs": [],
      "name": "TaskInvalid",
      "type": "error"
    },
    {
      "inputs": [
        {
          "internalType": "uint256",
          "name": "index",
          "type": "uint256"
        }
      ],
      "name": "TaskNotExist",
      "type": "error"
    },
    {
      "anonymous": false,
      "inputs": [
        {
          "indexed": false,
          "internalType": "bytes32",
          "name": "messageId",
          "type": "bytes32"
        }
      ],
      "name": "MessageSent",
      "type": "event"
    },
    {
      "anonymous": false,
      "inputs": [
        {
          "indexed": true,
          "internalType": "uint256",
          "name": "index",
          "type": "uint256"
        },
        {
          "indexed": false,
          "internalType": "address",
          "name": "account",
          "type": "address"
        }
      ],
      "name": "TaskApplied",
      "type": "event"
    },
    {
      "anonymous": false,
      "inputs": [
        {
          "indexed": true,
          "internalType": "uint256",
          "name": "index",
          "type": "uint256"
        }
      ],
      "name": "TaskCreated",
      "type": "event"
    },
    {
      "anonymous": false,
      "inputs": [
        {
          "indexed": false,
          "internalType": "address",
          "name": "account",
          "type": "address"
        },
        {
          "indexed": false,
          "internalType": "uint256",
          "name": "amount",
          "type": "uint256"
        }
      ],
      "name": "TransferSuccess",
      "type": "event"
    },
    {
      "inputs": [
        {
          "internalType": "uint256",
          "name": "chainId",
          "type": "uint256"
        },
        {
          "internalType": "address",
          "name": "contractAddress",
          "type": "address"
        },
        {
          "internalType": "uint64",
          "name": "selector",
          "type": "uint64"
        }
      ],
      "name": "addDestinationContractAndSelector",
      "outputs": [],
      "stateMutability": "nonpayable",
      "type": "function"
    },
    {
      "inputs": [
        {
          "components": [
            {
              "internalType": "string",
              "name": "name",
              "type": "string"
            },
            {
              "internalType": "string",
              "name": "description",
              "type": "string"
            },
            {
              "internalType": "uint256",
              "name": "reward",
              "type": "uint256"
            },
            {
              "internalType": "enum Tasks.Status",
              "name": "status",
              "type": "uint8"
            }
          ],
          "internalType": "struct Tasks.task",
          "name": "_task",
          "type": "tuple"
        }
      ],
      "name": "addTask",
      "outputs": [],
      "stateMutability": "nonpayable",
      "type": "function"
    },
    {
      "inputs": [
        {
          "internalType": "uint256",
          "name": "chainId",
          "type": "uint256"
        },
        {
          "internalType": "uint256",
          "name": "index",
          "type": "uint256"
        }
      ],
      "name": "applyTask",
      "outputs": [],
      "stateMutability": "nonpayable",
      "type": "function"
    },
    {
      "inputs": [],
      "name": "canBeAppliedNum",
      "outputs": [
        {
          "internalType": "uint256",
          "name": "",
          "type": "uint256"
        }
      ],
      "stateMutability": "view",
      "type": "function"
    },
    {
      "inputs": [
        {
          "internalType": "uint256",
          "name": "chainId",
          "type": "uint256"
        }
      ],
      "name": "hasContractAddressOfChain",
      "outputs": [
        {
          "internalType": "bool",
          "name": "",
          "type": "bool"
        }
      ],
      "stateMutability": "view",
      "type": "function"
    },
    {
      "inputs": [
        {
          "internalType": "uint256",
          "name": "chainId",
          "type": "uint256"
        }
      ],
      "name": "hasSelectorOfChain",
      "outputs": [
        {
          "internalType": "bool",
          "name": "",
          "type": "bool"
        }
      ],
      "stateMutability": "view",
      "type": "function"
    },
    {
      "inputs": [
        {
          "internalType": "uint256",
          "name": "index",
          "type": "uint256"
        }
      ],
      "name": "markDone",
      "outputs": [],
      "stateMutability": "payable",
      "type": "function"
    },
    {
      "inputs": [],
      "name": "numOfTasks",
      "outputs": [
        {
          "internalType": "uint256",
          "name": "",
          "type": "uint256"
        }
      ],
      "stateMutability": "view",
      "type": "function"
    },
    {
      "inputs": [],
      "name": "showTasks",
      "outputs": [
        {
          "components": [
            {
              "internalType": "string",
              "name": "name",
              "type": "string"
            },
            {
              "internalType": "string",
              "name": "description",
              "type": "string"
            },
            {
              "internalType": "uint256",
              "name": "reward",
              "type": "uint256"
            },
            {
              "internalType": "enum Tasks.Status",
              "name": "status",
              "type": "uint8"
            }
          ],
          "internalType": "struct Tasks.task[]",
          "name": "",
          "type": "tuple[]"
        },
        {
          "internalType": "uint256[]",
          "name": "",
          "type": "uint256[]"
        }
      ],
      "stateMutability": "view",
      "type": "function"
    },
    {
      "stateMutability": "payable",
      "type": "receive"
    }
  ],
  "transactionHash": "0xea516cf589a3501d9a65825ecded9781587eff82cda7e562e0bacfe463d461e0",
  "args": [
    "0xF694E193200268f9a4868e4Aa017A0118C9a8177",
    "0x0b9d5D9136855f6FEc3c0993feE6E9CE8a297846",
    "0x5498BB86BC934c8D34FDA08E81D444153d0D06aD"
  ],
  "numDeployments": 2,
  "solcInputHash": "4388dd84bee967f2bfb78a01919ddd52",
  "bytecode": "0x60806040523480156200001157600080fd5b5060405162003108380380620031088339818101604052810190620000379190620001ad565b336000806101000a81548173ffffffffffffffffffffffffffffffffffffffff021916908373ffffffffffffffffffffffffffffffffffffffff16021790555082600460006101000a81548173ffffffffffffffffffffffffffffffffffffffff021916908373ffffffffffffffffffffffffffffffffffffffff16021790555081600360006101000a81548173ffffffffffffffffffffffffffffffffffffffff021916908373ffffffffffffffffffffffffffffffffffffffff16021790555080600560006101000a81548173ffffffffffffffffffffffffffffffffffffffff021916908373ffffffffffffffffffffffffffffffffffffffff16021790555050505062000209565b600080fd5b600073ffffffffffffffffffffffffffffffffffffffff82169050919050565b6000620001758262000148565b9050919050565b620001878162000168565b81146200019357600080fd5b50565b600081519050620001a7816200017c565b92915050565b600080600060608486031215620001c957620001c862000143565b5b6000620001d98682870162000196565b9350506020620001ec8682870162000196565b9250506040620001ff8682870162000196565b9150509250925092565b612eef80620002196000396000f3fe60806040526004361061008a5760003560e01c806379f474da1161005957806379f474da14610143578063b24f26b41461016f578063cabddbb314610198578063d7be51a5146101c1578063e1eccbef146101ec57610091565b80631649911414610096578063278d8363146100c15780634ad0e590146100ea57806358b35a8c1461010657610091565b3661009157005b600080fd5b3480156100a257600080fd5b506100ab610229565b6040516100b8919061191f565b60405180910390f35b3480156100cd57600080fd5b506100e860048036038101906100e39190611a18565b610236565b005b61010460048036038101906100ff9190611a6b565b61038a565b005b34801561011257600080fd5b5061012d60048036038101906101289190611a6b565b610572565b60405161013a9190611ab3565b60405180910390f35b34801561014f57600080fd5b50610158610642565b604051610166929190611dbf565b60405180910390f35b34801561017b57600080fd5b506101966004803603810190610191919061200a565b61095b565b005b3480156101a457600080fd5b506101bf60048036038101906101ba9190612053565b610b67565b005b3480156101cd57600080fd5b506101d6610d3e565b6040516101e3919061191f565b60405180910390f35b3480156101f857600080fd5b50610213600480360381019061020e9190611a6b565b610d44565b6040516102209190611ab3565b60405180910390f35b6000600180549050905090565b60008054906101000a900473ffffffffffffffffffffffffffffffffffffffff1673ffffffffffffffffffffffffffffffffffffffff163373ffffffffffffffffffffffffffffffffffffffff16146102c4576040517f08c379a00000000000000000000000000000000000000000000000000000000081526004016102bb90612116565b60405180910390fd5b60405180604001604052808373ffffffffffffffffffffffffffffffffffffffff1681526020018267ffffffffffffffff168152506007600085815260200190815260200160002060008201518160000160006101000a81548173ffffffffffffffffffffffffffffffffffffffff021916908373ffffffffffffffffffffffffffffffffffffffff16021790555060208201518160000160146101000a81548167ffffffffffffffff021916908367ffffffffffffffff160217905550905050505050565b60008054906101000a900473ffffffffffffffffffffffffffffffffffffffff1673ffffffffffffffffffffffffffffffffffffffff163373ffffffffffffffffffffffffffffffffffffffff1614610418576040517f08c379a000000000000000000000000000000000000000000000000000000000815260040161040f90612116565b60405180910390fd5b61042181610db3565b6001600281111561043557610434611b99565b5b6001828154811061044957610448612136565b5b906000526020600020906004020160030160009054906101000a900460ff16600281111561047a57610479611b99565b5b146104ba576040517f08c379a00000000000000000000000000000000000000000000000000000000081526004016104b1906121b1565b60405180910390fd5b6000600660008381526020019081526020016000206040518060400160405290816000820160009054906101000a900473ffffffffffffffffffffffffffffffffffffffff1673ffffffffffffffffffffffffffffffffffffffff1673ffffffffffffffffffffffffffffffffffffffff16815260200160018201548152505090504681602001510361055a57610555816000015183610dff565b61056e565b61056d8160200151826000015184610fa8565b5b5050565b60008060009054906101000a900473ffffffffffffffffffffffffffffffffffffffff1673ffffffffffffffffffffffffffffffffffffffff163373ffffffffffffffffffffffffffffffffffffffff1614610603576040517f08c379a00000000000000000000000000000000000000000000000000000000081526004016105fa90612116565b60405180910390fd5b60006007600084815260200190815260200160002060000160149054906101000a900467ffffffffffffffff1667ffffffffffffffff16119050919050565b606080600060025467ffffffffffffffff81111561066357610662611dfb565b5b60405190808252806020026020018201604052801561069c57816020015b610689611857565b8152602001906001900390816106815790505b509050600060025467ffffffffffffffff8111156106bd576106bc611dfb565b5b6040519080825280602002602001820160405280156106eb5781602001602082028036833780820191505090505b5090506000805b60018054905081101561094d576000600281111561071357610712611b99565b5b6001828154811061072757610726612136565b5b906000526020600020906004020160030160009054906101000a900460ff16600281111561075857610757611b99565b5b03610940576001818154811061077157610770612136565b5b906000526020600020906004020160405180608001604052908160008201805461079a90612200565b80601f01602080910402602001604051908101604052809291908181526020018280546107c690612200565b80156108135780601f106107e857610100808354040283529160200191610813565b820191906000526020600020905b8154815290600101906020018083116107f657829003601f168201915b5050505050815260200160018201805461082c90612200565b80601f016020809104026020016040519081016040528092919081815260200182805461085890612200565b80156108a55780601f1061087a576101008083540402835291602001916108a5565b820191906000526020600020905b81548152906001019060200180831161088857829003601f168201915b50505050508152602001600282015481526020016003820160009054906101000a900460ff1660028111156108dd576108dc611b99565b5b60028111156108ef576108ee611b99565b5b8152505084838151811061090657610905612136565b5b60200260200101819052508083838151811061092557610924612136565b5b602002602001018181525050818061093c90612260565b9250505b80806001019150506106f2565b508282945094505050509091565b60008054906101000a900473ffffffffffffffffffffffffffffffffffffffff1673ffffffffffffffffffffffffffffffffffffffff163373ffffffffffffffffffffffffffffffffffffffff16146109e9576040517f08c379a00000000000000000000000000000000000000000000000000000000081526004016109e090612116565b60405180910390fd5b6109f2816110d6565b610a28576040517f2cbc75e100000000000000000000000000000000000000000000000000000000815260040160405180910390fd5b610a35816000015161113c565b15610a7b5780600001516040517f1afad088000000000000000000000000000000000000000000000000000000008152600401610a7291906122e1565b60405180910390fd5b60018190806001815401808255809150506001900390600052602060002090600402016000909190919091506000820151816000019081610abc91906124af565b506020820151816001019081610ad291906124af565b506040820151816002015560608201518160030160006101000a81548160ff02191690836002811115610b0857610b07611b99565b5b0217905550505060026000815480929190610b2290612260565b919050555060018080549050610b389190612581565b7fba46948ae716559226cede7aac0175e8ddd11b7cb3ea0369c9f218ef908b87d560405160405180910390a250565b610b7081610db3565b60006002811115610b8457610b83611b99565b5b60018281548110610b9857610b97612136565b5b906000526020600020906004020160030160009054906101000a900460ff166002811115610bc957610bc8611b99565b5b14610c0b57806040517ff04d971a000000000000000000000000000000000000000000000000000000008152600401610c02919061191f565b60405180910390fd5b6001808281548110610c2057610c1f612136565b5b906000526020600020906004020160030160006101000a81548160ff02191690836002811115610c5357610c52611b99565b5b021790555060026000815480929190610c6b906125b5565b919050555060405180604001604052803373ffffffffffffffffffffffffffffffffffffffff168152602001838152506006600083815260200190815260200160002060008201518160000160006101000a81548173ffffffffffffffffffffffffffffffffffffffff021916908373ffffffffffffffffffffffffffffffffffffffff16021790555060208201518160010155905050807f7f4b15de145103c2f48b4429df1c147497eb30d764058cdbdd0e7b7ad82d8fac33604051610d3291906125ed565b60405180910390a25050565b60025481565b60008073ffffffffffffffffffffffffffffffffffffffff166007600084815260200190815260200160002060000160009054906101000a900473ffffffffffffffffffffffffffffffffffffffff1673ffffffffffffffffffffffffffffffffffffffff1614159050919050565b6001805490508110610dfc57806040517f6a938592000000000000000000000000000000000000000000000000000000008152600401610df3919061191f565b60405180910390fd5b50565b6000670de0b6b3a764000060018381548110610e1e57610e1d612136565b5b906000526020600020906004020160020154610e3a9190612608565b905080610e72600560009054906101000a900473ffffffffffffffffffffffffffffffffffffffff16476111ea90919063ffffffff16565b1015610eb3576040517f08c379a0000000000000000000000000000000000000000000000000000000008152600401610eaa90612696565b60405180910390fd5b6000610eea600560009054906101000a900473ffffffffffffffffffffffffffffffffffffffff168361121b90919063ffffffff16565b905060008473ffffffffffffffffffffffffffffffffffffffff1682604051610f12906126e7565b60006040518083038185875af1925050503d8060008114610f4f576040519150601f19603f3d011682016040523d82523d6000602084013e610f54565b606091505b505090508015610fa1577f2e1ece5fb4a04cb9407bb825ceb4c6d6d402c18ba1cbe2054241fb1a86fd58da8583604051610f8f9291906126fc565b60405180910390a1610fa084611251565b5b5050505050565b6000610fb58484846112e7565b9050610fc18482611472565b6000600460009054906101000a900473ffffffffffffffffffffffffffffffffffffffff1673ffffffffffffffffffffffffffffffffffffffff166396f4e9f96007600088815260200190815260200160002060000160149054906101000a900467ffffffffffffffff16846040518363ffffffff1660e01b815260040161104a929190612901565b6020604051808303816000875af1158015611069573d6000803e3d6000fd5b505050506040513d601f19601f8201168201806040525081019061108d9190612967565b90507f54791b38f3859327992a1ca0590ad3c0f08feba98d1a4f56ab0dca74d203392a816040516110be91906129a3565b60405180910390a16110cf83611251565b5050505050565b6000808260000151511180156110f157506000826020015151115b8015611101575060008260400151115b801561113557506000600281111561111c5761111b611b99565b5b8260600151600281111561113357611132611b99565b5b145b9050919050565b600080600090505b6001805490508110156111df578260405160200161116291906129fa565b604051602081830303815290604052805190602001206001828154811061118c5761118b612136565b5b90600052602060002090600402016000016040516020016111ad9190612a94565b60405160208183030381529060405280519060200120036111d25760019150506111e5565b8080600101915050611144565b50600090505b919050565b6000670de0b6b3a7640000836112009190612ada565b611209836116c0565b6112139190612608565b905092915050565b600080611227836116c0565b905080670de0b6b3a76400008561123e9190612608565b6112489190612ada565b91505092915050565b60026001828154811061126757611266612136565b5b906000526020600020906004020160030160006101000a81548160ff0219169083600281111561129a57611299611b99565b5b021790555060066000828152602001908152602001600020600080820160006101000a81549073ffffffffffffffffffffffffffffffffffffffff02191690556001820160009055505050565b6112ef611891565b6040518060a001604052806007600087815260200190815260200160002060000160009054906101000a900473ffffffffffffffffffffffffffffffffffffffff1660405160200161134191906125ed565b604051602081830303815290604052815260200184670de0b6b3a76400006001868154811061137357611372612136565b5b90600052602060002090600402016002015461138f9190612608565b6040516020016113a09291906126fc565b6040516020818303038152906040528152602001600067ffffffffffffffff8111156113cf576113ce611dfb565b5b60405190808252806020026020018201604052801561140857816020015b6113f56118d6565b8152602001906001900390816113ed5790505b508152602001600360009054906101000a900473ffffffffffffffffffffffffffffffffffffffff1673ffffffffffffffffffffffffffffffffffffffff1681526020016114666040518060200160405280620ef4208152506117d8565b81525090509392505050565b6000600460009054906101000a900473ffffffffffffffffffffffffffffffffffffffff1673ffffffffffffffffffffffffffffffffffffffff166320487ded6007600086815260200190815260200160002060000160149054906101000a900467ffffffffffffffff16846040518363ffffffff1660e01b81526004016114fb929190612901565b602060405180830381865afa158015611518573d6000803e3d6000fd5b505050506040513d601f19601f8201168201806040525081019061153c9190612b20565b9050600360009054906101000a900473ffffffffffffffffffffffffffffffffffffffff1673ffffffffffffffffffffffffffffffffffffffff166370a08231306040518263ffffffff1660e01b815260040161159991906125ed565b602060405180830381865afa1580156115b6573d6000803e3d6000fd5b505050506040513d601f19601f820116820180604052508101906115da9190612b20565b8111156116bb57600360009054906101000a900473ffffffffffffffffffffffffffffffffffffffff1673ffffffffffffffffffffffffffffffffffffffff166370a08231306040518263ffffffff1660e01b815260040161163c91906125ed565b602060405180830381865afa158015611659573d6000803e3d6000fd5b505050506040513d601f19601f8201168201806040525081019061167d9190612b20565b816040517f8f0f42060000000000000000000000000000000000000000000000000000000081526004016116b2929190612b4d565b60405180910390fd5b505050565b6000808273ffffffffffffffffffffffffffffffffffffffff1663313ce5676040518163ffffffff1660e01b8152600401602060405180830381865afa15801561170e573d6000803e3d6000fd5b505050506040513d601f19601f820116820180604052508101906117329190612baf565b905060008373ffffffffffffffffffffffffffffffffffffffff1663feaf968c6040518163ffffffff1660e01b815260040160a060405180830381865afa158015611781573d6000803e3d6000fd5b505050506040513d601f19601f820116820180604052508101906117a59190612c54565b5050509150508160126117b89190612ccf565b600a6117c49190612e37565b816117cf9190612608565b92505050919050565b60606397a657c960e01b826040516024016117f39190612e9e565b604051602081830303815290604052907bffffffffffffffffffffffffffffffffffffffffffffffffffffffff19166020820180517bffffffffffffffffffffffffffffffffffffffffffffffffffffffff83818316178352505050509050919050565b60405180608001604052806060815260200160608152602001600081526020016000600281111561188b5761188a611b99565b5b81525090565b6040518060a00160405280606081526020016060815260200160608152602001600073ffffffffffffffffffffffffffffffffffffffff168152602001606081525090565b6040518060400160405280600073ffffffffffffffffffffffffffffffffffffffff168152602001600081525090565b6000819050919050565b61191981611906565b82525050565b60006020820190506119346000830184611910565b92915050565b6000604051905090565b600080fd5b600080fd5b61195781611906565b811461196257600080fd5b50565b6000813590506119748161194e565b92915050565b600073ffffffffffffffffffffffffffffffffffffffff82169050919050565b60006119a58261197a565b9050919050565b6119b58161199a565b81146119c057600080fd5b50565b6000813590506119d2816119ac565b92915050565b600067ffffffffffffffff82169050919050565b6119f5816119d8565b8114611a0057600080fd5b50565b600081359050611a12816119ec565b92915050565b600080600060608486031215611a3157611a30611944565b5b6000611a3f86828701611965565b9350506020611a50868287016119c3565b9250506040611a6186828701611a03565b9150509250925092565b600060208284031215611a8157611a80611944565b5b6000611a8f84828501611965565b91505092915050565b60008115159050919050565b611aad81611a98565b82525050565b6000602082019050611ac86000830184611aa4565b92915050565b600081519050919050565b600082825260208201905092915050565b6000819050602082019050919050565b600081519050919050565b600082825260208201905092915050565b60005b83811015611b34578082015181840152602081019050611b19565b60008484015250505050565b6000601f19601f8301169050919050565b6000611b5c82611afa565b611b668185611b05565b9350611b76818560208601611b16565b611b7f81611b40565b840191505092915050565b611b9381611906565b82525050565b7f4e487b7100000000000000000000000000000000000000000000000000000000600052602160045260246000fd5b60038110611bd957611bd8611b99565b5b50565b6000819050611bea82611bc8565b919050565b6000611bfa82611bdc565b9050919050565b611c0a81611bef565b82525050565b60006080830160008301518482036000860152611c2d8282611b51565b91505060208301518482036020860152611c478282611b51565b9150506040830151611c5c6040860182611b8a565b506060830151611c6f6060860182611c01565b508091505092915050565b6000611c868383611c10565b905092915050565b6000602082019050919050565b6000611ca682611ace565b611cb08185611ad9565b935083602082028501611cc285611aea565b8060005b85811015611cfe5784840389528151611cdf8582611c7a565b9450611cea83611c8e565b925060208a01995050600181019050611cc6565b50829750879550505050505092915050565b600081519050919050565b600082825260208201905092915050565b6000819050602082019050919050565b6000611d488383611b8a565b60208301905092915050565b6000602082019050919050565b6000611d6c82611d10565b611d768185611d1b565b9350611d8183611d2c565b8060005b83811015611db2578151611d998882611d3c565b9750611da483611d54565b925050600181019050611d85565b5085935050505092915050565b60006040820190508181036000830152611dd98185611c9b565b90508181036020830152611ded8184611d61565b90509392505050565b600080fd5b7f4e487b7100000000000000000000000000000000000000000000000000000000600052604160045260246000fd5b611e3382611b40565b810181811067ffffffffffffffff82111715611e5257611e51611dfb565b5b80604052505050565b6000611e6561193a565b9050611e718282611e2a565b919050565b600080fd5b600080fd5b600080fd5b600067ffffffffffffffff821115611ea057611e9f611dfb565b5b611ea982611b40565b9050602081019050919050565b82818337600083830152505050565b6000611ed8611ed384611e85565b611e5b565b905082815260208101848484011115611ef457611ef3611e80565b5b611eff848285611eb6565b509392505050565b600082601f830112611f1c57611f1b611e7b565b5b8135611f2c848260208601611ec5565b91505092915050565b60038110611f4257600080fd5b50565b600081359050611f5481611f35565b92915050565b600060808284031215611f7057611f6f611df6565b5b611f7a6080611e5b565b9050600082013567ffffffffffffffff811115611f9a57611f99611e76565b5b611fa684828501611f07565b600083015250602082013567ffffffffffffffff811115611fca57611fc9611e76565b5b611fd684828501611f07565b6020830152506040611fea84828501611965565b6040830152506060611ffe84828501611f45565b60608301525092915050565b6000602082840312156120205761201f611944565b5b600082013567ffffffffffffffff81111561203e5761203d611949565b5b61204a84828501611f5a565b91505092915050565b6000806040838503121561206a57612069611944565b5b600061207885828601611965565b925050602061208985828601611965565b9150509250929050565b600082825260208201905092915050565b7f6f6e6c79206f776e65722063616e2063616c6c20746869732066756e6374696f60008201527f6e2e000000000000000000000000000000000000000000000000000000000000602082015250565b6000612100602283612093565b915061210b826120a4565b604082019050919050565b6000602082019050818103600083015261212f816120f3565b9050919050565b7f4e487b7100000000000000000000000000000000000000000000000000000000600052603260045260246000fd5b7f7461736b207374617475732073686f756c6420626520657865637574696e6700600082015250565b600061219b601f83612093565b91506121a682612165565b602082019050919050565b600060208201905081810360008301526121ca8161218e565b9050919050565b7f4e487b7100000000000000000000000000000000000000000000000000000000600052602260045260246000fd5b6000600282049050600182168061221857607f821691505b60208210810361222b5761222a6121d1565b5b50919050565b7f4e487b7100000000000000000000000000000000000000000000000000000000600052601160045260246000fd5b600061226b82611906565b91507fffffffffffffffffffffffffffffffffffffffffffffffffffffffffffffffff820361229d5761229c612231565b5b600182019050919050565b60006122b382611afa565b6122bd8185612093565b93506122cd818560208601611b16565b6122d681611b40565b840191505092915050565b600060208201905081810360008301526122fb81846122a8565b905092915050565b60008190508160005260206000209050919050565b60006020601f8301049050919050565b600082821b905092915050565b6000600883026123657fffffffffffffffffffffffffffffffffffffffffffffffffffffffffffffffff82612328565b61236f8683612328565b95508019841693508086168417925050509392505050565b6000819050919050565b60006123ac6123a76123a284611906565b612387565b611906565b9050919050565b6000819050919050565b6123c683612391565b6123da6123d2826123b3565b848454612335565b825550505050565b600090565b6123ef6123e2565b6123fa8184846123bd565b505050565b5b8181101561241e576124136000826123e7565b600181019050612400565b5050565b601f8211156124635761243481612303565b61243d84612318565b8101602085101561244c578190505b61246061245885612318565b8301826123ff565b50505b505050565b600082821c905092915050565b600061248660001984600802612468565b1980831691505092915050565b600061249f8383612475565b9150826002028217905092915050565b6124b882611afa565b67ffffffffffffffff8111156124d1576124d0611dfb565b5b6124db8254612200565b6124e6828285612422565b600060209050601f8311600181146125195760008415612507578287015190505b6125118582612493565b865550612579565b601f19841661252786612303565b60005b8281101561254f5784890151825560018201915060208501945060208101905061252a565b8683101561256c5784890151612568601f891682612475565b8355505b6001600288020188555050505b505050505050565b600061258c82611906565b915061259783611906565b92508282039050818111156125af576125ae612231565b5b92915050565b60006125c082611906565b9150600082036125d3576125d2612231565b5b600182039050919050565b6125e78161199a565b82525050565b600060208201905061260260008301846125de565b92915050565b600061261382611906565b915061261e83611906565b925082820261262c81611906565b9150828204841483151761264357612642612231565b5b5092915050565b7f6e656564206d6f72652062616c616e6365000000000000000000000000000000600082015250565b6000612680601183612093565b915061268b8261264a565b602082019050919050565b600060208201905081810360008301526126af81612673565b9050919050565b600081905092915050565b50565b60006126d16000836126b6565b91506126dc826126c1565b600082019050919050565b60006126f2826126c4565b9150819050919050565b600060408201905061271160008301856125de565b61271e6020830184611910565b9392505050565b61272e816119d8565b82525050565b600081519050919050565b600082825260208201905092915050565b600061275b82612734565b612765818561273f565b9350612775818560208601611b16565b61277e81611b40565b840191505092915050565b600081519050919050565b600082825260208201905092915050565b6000819050602082019050919050565b6127be8161199a565b82525050565b6040820160008201516127da60008501826127b5565b5060208201516127ed6020850182611b8a565b50505050565b60006127ff83836127c4565b60408301905092915050565b6000602082019050919050565b600061282382612789565b61282d8185612794565b9350612838836127a5565b8060005b8381101561286957815161285088826127f3565b975061285b8361280b565b92505060018101905061283c565b5085935050505092915050565b600060a08301600083015184820360008601526128938282612750565b915050602083015184820360208601526128ad8282612750565b915050604083015184820360408601526128c78282612818565b91505060608301516128dc60608601826127b5565b50608083015184820360808601526128f48282612750565b9150508091505092915050565b60006040820190506129166000830185612725565b81810360208301526129288184612876565b90509392505050565b6000819050919050565b61294481612931565b811461294f57600080fd5b50565b6000815190506129618161293b565b92915050565b60006020828403121561297d5761297c611944565b5b600061298b84828501612952565b91505092915050565b61299d81612931565b82525050565b60006020820190506129b86000830184612994565b92915050565b600081905092915050565b60006129d482611afa565b6129de81856129be565b93506129ee818560208601611b16565b80840191505092915050565b6000612a0682846129c9565b915081905092915050565b60008154612a1e81612200565b612a2881866129be565b94506001821660008114612a435760018114612a5857612a8b565b60ff1983168652811515820286019350612a8b565b612a6185612303565b60005b83811015612a8357815481890152600182019150602081019050612a64565b838801955050505b50505092915050565b6000612aa08284612a11565b915081905092915050565b7f4e487b7100000000000000000000000000000000000000000000000000000000600052601260045260246000fd5b6000612ae582611906565b9150612af083611906565b925082612b0057612aff612aab565b5b828204905092915050565b600081519050612b1a8161194e565b92915050565b600060208284031215612b3657612b35611944565b5b6000612b4484828501612b0b565b91505092915050565b6000604082019050612b626000830185611910565b612b6f6020830184611910565b9392505050565b600060ff82169050919050565b612b8c81612b76565b8114612b9757600080fd5b50565b600081519050612ba981612b83565b92915050565b600060208284031215612bc557612bc4611944565b5b6000612bd384828501612b9a565b91505092915050565b600069ffffffffffffffffffff82169050919050565b612bfb81612bdc565b8114612c0657600080fd5b50565b600081519050612c1881612bf2565b92915050565b6000819050919050565b612c3181612c1e565b8114612c3c57600080fd5b50565b600081519050612c4e81612c28565b92915050565b600080600080600060a08688031215612c7057612c6f611944565b5b6000612c7e88828901612c09565b9550506020612c8f88828901612c3f565b9450506040612ca088828901612b0b565b9350506060612cb188828901612b0b565b9250506080612cc288828901612c09565b9150509295509295909350565b6000612cda82612b76565b9150612ce583612b76565b9250828203905060ff811115612cfe57612cfd612231565b5b92915050565b60008160011c9050919050565b6000808291508390505b6001851115612d5b57808604811115612d3757612d36612231565b5b6001851615612d465780820291505b8081029050612d5485612d04565b9450612d1b565b94509492505050565b600082612d745760019050612e30565b81612d825760009050612e30565b8160018114612d985760028114612da257612dd1565b6001915050612e30565b60ff841115612db457612db3612231565b5b8360020a915084821115612dcb57612dca612231565b5b50612e30565b5060208310610133831016604e8410600b8410161715612e065782820a905083811115612e0157612e00612231565b5b612e30565b612e138484846001612d11565b92509050818404811115612e2a57612e29612231565b5b81810290505b9392505050565b6000612e4282611906565b9150612e4d83612b76565b9250612e7a7fffffffffffffffffffffffffffffffffffffffffffffffffffffffffffffffff8484612d64565b905092915050565b602082016000820151612e986000850182611b8a565b50505050565b6000602082019050612eb36000830184612e82565b9291505056fea26469706673582212206a419e340177683a092de6e8352a8e0ea3458330492dc493db8e2ccaf2adb33664736f6c63430008180033",
  "devdoc": {
    "kind": "dev",
    "methods": {},
    "version": 1
  },
  "userdoc": {
    "kind": "user",
    "methods": {},
    "version": 1
  },
  "storageLayout": {
    "storage": [
      {
        "astId": 494,
        "contract": "contracts/Tasks.sol:Tasks",
        "label": "owner",
        "offset": 0,
        "slot": "0",
        "type": "t_address"
      },
      {
        "astId": 498,
        "contract": "contracts/Tasks.sol:Tasks",
        "label": "tasks",
        "offset": 0,
        "slot": "1",
        "type": "t_array(t_struct(task)442_storage)dyn_storage"
      },
      {
        "astId": 500,
        "contract": "contracts/Tasks.sol:Tasks",
        "label": "canBeAppliedNum",
        "offset": 0,
        "slot": "2",
        "type": "t_uint256"
      },
      {
        "astId": 503,
        "contract": "contracts/Tasks.sol:Tasks",
        "label": "linkToken",
        "offset": 0,
        "slot": "3",
        "type": "t_contract(LinkTokenInterface)326"
      },
      {
        "astId": 506,
        "contract": "contracts/Tasks.sol:Tasks",
        "label": "router",
        "offset": 0,
        "slot": "4",
        "type": "t_contract(IRouterClient)51"
      },
      {
        "astId": 509,
        "contract": "contracts/Tasks.sol:Tasks",
        "label": "priceFeed",
        "offset": 0,
        "slot": "5",
        "type": "t_contract(AggregatorV3Interface)231"
      },
      {
        "astId": 514,
        "contract": "contracts/Tasks.sol:Tasks",
        "label": "taskToAccount",
        "offset": 0,
        "slot": "6",
        "type": "t_mapping(t_uint256,t_struct(applierInfomation)447_storage)"
      },
      {
        "astId": 519,
        "contract": "contracts/Tasks.sol:Tasks",
        "label": "chainToContractAndSelector",
        "offset": 0,
        "slot": "7",
        "type": "t_mapping(t_uint256,t_struct(chainContractAndSelector)452_storage)"
      }
    ],
    "types": {
      "t_address": {
        "encoding": "inplace",
        "label": "address",
        "numberOfBytes": "20"
      },
      "t_array(t_struct(task)442_storage)dyn_storage": {
        "base": "t_struct(task)442_storage",
        "encoding": "dynamic_array",
        "label": "struct Tasks.task[]",
        "numberOfBytes": "32"
      },
      "t_contract(AggregatorV3Interface)231": {
        "encoding": "inplace",
        "label": "contract AggregatorV3Interface",
        "numberOfBytes": "20"
      },
      "t_contract(IRouterClient)51": {
        "encoding": "inplace",
        "label": "contract IRouterClient",
        "numberOfBytes": "20"
      },
      "t_contract(LinkTokenInterface)326": {
        "encoding": "inplace",
        "label": "contract LinkTokenInterface",
        "numberOfBytes": "20"
      },
      "t_enum(Status)432": {
        "encoding": "inplace",
        "label": "enum Tasks.Status",
        "numberOfBytes": "1"
      },
      "t_mapping(t_uint256,t_struct(applierInfomation)447_storage)": {
        "encoding": "mapping",
        "key": "t_uint256",
        "label": "mapping(uint256 => struct Tasks.applierInfomation)",
        "numberOfBytes": "32",
        "value": "t_struct(applierInfomation)447_storage"
      },
      "t_mapping(t_uint256,t_struct(chainContractAndSelector)452_storage)": {
        "encoding": "mapping",
        "key": "t_uint256",
        "label": "mapping(uint256 => struct Tasks.chainContractAndSelector)",
        "numberOfBytes": "32",
        "value": "t_struct(chainContractAndSelector)452_storage"
      },
      "t_string_storage": {
        "encoding": "bytes",
        "label": "string",
        "numberOfBytes": "32"
      },
      "t_struct(applierInfomation)447_storage": {
        "encoding": "inplace",
        "label": "struct Tasks.applierInfomation",
        "members": [
          {
            "astId": 444,
            "contract": "contracts/Tasks.sol:Tasks",
            "label": "account",
            "offset": 0,
            "slot": "0",
            "type": "t_address"
          },
          {
            "astId": 446,
            "contract": "contracts/Tasks.sol:Tasks",
            "label": "chainId",
            "offset": 0,
            "slot": "1",
            "type": "t_uint256"
          }
        ],
        "numberOfBytes": "64"
      },
      "t_struct(chainContractAndSelector)452_storage": {
        "encoding": "inplace",
        "label": "struct Tasks.chainContractAndSelector",
        "members": [
          {
            "astId": 449,
            "contract": "contracts/Tasks.sol:Tasks",
            "label": "contractAddress",
            "offset": 0,
            "slot": "0",
            "type": "t_address"
          },
          {
            "astId": 451,
            "contract": "contracts/Tasks.sol:Tasks",
            "label": "selector",
            "offset": 20,
            "slot": "0",
            "type": "t_uint64"
          }
        ],
        "numberOfBytes": "32"
      },
      "t_struct(task)442_storage": {
        "encoding": "inplace",
        "label": "struct Tasks.task",
        "members": [
          {
            "astId": 434,
            "contract": "contracts/Tasks.sol:Tasks",
            "label": "name",
            "offset": 0,
            "slot": "0",
            "type": "t_string_storage"
          },
          {
            "astId": 436,
            "contract": "contracts/Tasks.sol:Tasks",
            "label": "description",
            "offset": 0,
            "slot": "1",
            "type": "t_string_storage"
          },
          {
            "astId": 438,
            "contract": "contracts/Tasks.sol:Tasks",
            "label": "reward",
            "offset": 0,
            "slot": "2",
            "type": "t_uint256"
          },
          {
            "astId": 441,
            "contract": "contracts/Tasks.sol:Tasks",
            "label": "status",
            "offset": 0,
            "slot": "3",
            "type": "t_enum(Status)432"
          }
        ],
        "numberOfBytes": "128"
      },
      "t_uint256": {
        "encoding": "inplace",
        "label": "uint256",
        "numberOfBytes": "32"
      },
      "t_uint64": {
        "encoding": "inplace",
        "label": "uint64",
        "numberOfBytes": "8"
      }
    }
  }
}